:1000000009C00EC00DC017C00BC00AC00AC008C08E
:1000100007C006C011241FBECFE9CDBF3AD03FC0F4
:10002000EFCF1F920F920FB60F9211240F900FBEB9
:100030000F901F9018951F920F920FB60F921124D8
:100040000F900FBE0F901F90189518BAE4EFF1E0D3
:100050003197F1F720E030E0082E000C990B64EFA7
:1000600071E0AC01022E02C0559547950A94E2F763
:100070004E6F48BBFB013197F1F72F5F3F4F2830A0
:10008000310579F78FEF88BB84EF91E00197F1F7A5
:1000900008958FEF87BB88BB81E4D7DFFDCFF8944D
:0200A000FFCF90
:00000001FF
