:100000000C9434000C943E000C943E000C943E0082
:100010000C943E000C943E000C943E000C943E0068
:100020000C943E000C943E000C943E000C943E0058
:100030000C943E000C943E000C943E000C943E0048
:100040000C943E000C943E000C943E000C943E0038
:100050000C943E000C943E000C943E000C943E0028
:100060000C943E000C943E0011241FBECFEFD8E04C
:10007000DEBFCDBF0E9454000C9463000C940000BE
:100080001092C50083E08093C40088E08093C10093
:1000900086E08093C2000895E0ECF0E0908195FF47
:1000A000FDCF8093C60008950E9440002FEF83ED9E
:1000B00090E3215080409040E1F700C000008FEFB6
:0A00C0000E944C00FCCFF894FFCF23
:00000001FF
