:100000000C9434000C9446000C9446000C9446006A
:100010000C9446000C9446000C9446000C94460048
:100020000C9446000C9446000C9446000C94460038
:100030000C9446000C9446000C9446000C94460028
:100040000C9446000C9446000C9446000C94460018
:100050000C9457000C9446000C9446000C944600F7
:100060000C9446000C94460011241FBECFEFD8E03C
:10007000DEBFCDBF21E0A0E0B1E001C01D92A23003
:10008000B207E1F70E948C000C9496000C940000DB
:100090001092C50081E08093C400E1ECF0E0808123
:1000A0008864808386E08093C200789408951F92CC
:1000B0000F920FB60F9211248F939F93EF93FF939C
:1000C000E0910001F09101018081882349F0CF0186
:1000D0000196909301018093000180818093C60076
:1000E000FF91EF919F918F910F900FBE0F901F90F6
:1000F000189517B880E680937C0087E880937A0093
:100100000895EAE7F0E0808180648083808186FD45
:10011000FDCF8091790008950E9448000E947900E7
:10012000C6ECD0E00E9481008883FCCFF894FFCF1A
:00000001FF
