:100000000C9434000C9446000C9446000C9446006A
:100010000C9446000C9446000C9446000C94460048
:100020000C9446000C9446000C9446000C94460038
:100030000C9446000C9446000C9446000C94460028
:100040000C9446000C9446000C9446000C94460018
:100050000C9456000C94A4000C9446000C9446009A
:100060000C9446000C94460011241FBECFEFD8E03C
:10007000DEBFCDBF21E0A0E0B1E001C01D92A23003
:10008000B207E1F70E94B4000C94B7000C94000092
:100090001092C5001092C400E1ECF0E08081886409
:1000A000808386E08093C200789408951F920F9217
:1000B0000FB60F9211248F939F93EF93FF93E091CC
:1000C0000001F09101018081882349F0CF01019660
:1000D000909301018093000180818093C600FF917D
:1000E000EF919F918F910F900FBE0F901F901895D9
:1000F00017B890E690937C00082E000C990BAC0189
:10010000440F551F42955295507F5427407F5427E6
:100110009C01220F331F220F331F220F331F242B6A
:10012000246800249695879507949695879507945B
:10013000982F802D822B80937A0008950E9448008A
:1001400081E00E94780008951F920F920FB60F92DF
:1001500011248F93809179008093C6008F910F9026
:100160000FBE0F901F9018950E949E00FFCFF8942D
:02017000FFCFBF
:00000001FF
