:100000000C9434000C9451000C9451000C94510049
:100010000C9451000C9451000C9451000C9451001C
:100020000C9451000C9451000C9451000C9451000C
:100030000C9451000C9451000C9451000C945100FC
:100040000C9451000C9451000C9451000C945100EC
:100050000C946D000C9497000C9451000C9451007A
:100060000C9451000C94510011241FBECFEFD8E026
:10007000DEBFCDBF12E0A0E0B1E0EAE6F1E002C0F1
:1000800005900D92A63FB107D9F724E0A6EFB2E0A4
:1000900001C01D92A83FB207E1F70E94A1000C9495
:1000A000B3000C9400001092C5001092C400E1EC63
:1000B000F0E080818864808386E08093C200789439
:1000C00008959C012F5F3F4F3093F7022093F60273
:1000D000FC0180818093C60008951F920F920FB695
:1000E0000F9211248F939F93EF93FF93E091F60269
:1000F000F091F7028081882349F0CF010196909317
:10010000F7028093F60280818093C600FF91EF9101
:100110009F918F910F900FBE0F901F90189517B859
:1001200080E680937C008FEA80937A0008951F9286
:100130000F920FB60F9211240F900FBE0F901F90C9
:1001400018950E9453000E948F002FEF83E294EFD6
:10015000215080409040E1F700C0000080E091E035
:0A0160000E946100F2CFF894FFCF77
:10016A00414141414141414141414242424242426F
:10017A00424242424141414141414141414142425F
:10018A00424242424242424241414141414141414D
:10019A00414142424242424242424242414141413B
:1001AA00414141414141424242424242424242422B
:1001BA00414141414141414141414242424242421F
:1001CA00424242424141414141414141414142420F
:1001DA0042424242424242424141414141414141FD
:1001EA0041414242424242424242424241414141EB
:1001FA0041414141414142424242424242424242DB
:10020A0041414141414141414141424242424242CE
:10021A0042424242414141414141414141414242BE
:10022A0042424242424242424141414141414141AC
:10023A00414142424242424242424242414141419A
:10024A00414141414141424242424242424242428A
:10025A00414141414141414141414242424242427E
:10026A00424242424141414141414141414142426E
:10027A00424242424242424241414141414141415C
:10028A00414142424242424242424242414141414A
:10029A00414141414141424242424242424242423A
:1002AA00414141414141414141414242424242422E
:1002BA00424242424141414141414141414142421E
:1002CA00424242424242424241414141414141410C
:1002DA0041414242424242424242424241414141FA
:1002EA0041414141414142424242424242424242EA
:1002FA0041414141414141414141424242424242DE
:10030A0042424242414141414141414141414242CD
:10031A0042424242424242424141414141414141BB
:10032A0041414242424242424242424241414141A9
:10033A004141414141414242424242424242424299
:10034A00414141414141414141414242424242428D
:06035A0042424242000095
:00000001FF
