:020000020000FC
:1000000048454C4C4F20574F524C442E200028C09E
:1000180019D020E00FEF1FEF1A95F1F70A95E1F7D5
:1000280023952033C9F708955D9BFECF0CB9089539
:10003800C89500E0001201C00895002DF5DF319643
:10004800F7CF0895C89500E0001203C000E00AB990
:1000580018950CB83196189504E00EBF0FE50DBF42
:1000680006E800BD07E609B908E00AB940E0F0E093
:10007800E0E0DEDF4395042FD7DF00E2D5DFC9DFFC
:02008800F6CFB1
:00000001FF
