:020000020000FC
:0200000036C008
:1000180019D020E00FEF1FEF1A95F1F70A95E1F7D5
:1000280023952033C9F708955D9BFECF0CB9089539
:10003800C89500E0001201C00895002DF5DF319643
:10004800F7CF0895C89500E0001203C000E00AB990
:1000580018950CB83196189548454C4C4F20574F79
:10006800524C442E200004E00EBF0FE50DBF06E8F9
:1000780000BD07E609B908E00AB940E0F0E0E0E6AB
:10008800D7DF4395042FD0DF00E2CEDFC2DFF6CF03
:00000001FF
