:020000020000FC
:1000000025C08F939F939F918F918F939F9301977B
:10001000F1F73A95C1F79F918F9108955D9BFECFBF
:100020000CB90895C89500E0001201C00895002D94
:10003000F5DF3196F7CF0895C89500E0001203C0B0
:1000400000E00AB918950CB83196189504E00EBF77
:100050000FE50DBF06E800BD03E309B908E00AB9E2
:10006000B89A3AE00F93032FD9DF0F91C09B02C0DB
:10007000C09801C0C09A3F9380E29EE43AE0C1DF9D
:100080003F913A9509F0EECFC09B02C0C09801C0E5
:10009000C09A3F9380E593EC38E2B3DF3F91F4CF11
:00000001FF
