:020000020000FC
:0200000053C0EB
:10002400189500D02F938F939F9328E280E593EC4B
:100034000197F1F72A95D1F72F918F919F91089508
:1000440000E002BF05E003BF08B700FFFDCF01E0F9
:1000540008BF00E003BF089503E00EBD00E008BF41
:1000640004E008BF08B702FFFDCF04E008BF00E0CA
:100074000EBD08955D9BFECF0CB90895C89500E0B0
:10008400001201C00895002DF5DF3196F7CF0895D1
:10009400C89500E0001203C000E00AB918950CB836
:1000A4003196189504E00EBF0FE50DBF06E800BDBC
:1000B40003E309B908E00AB9B89AC09A03E00EBD8F
:1000C40000E008BF04E008BF08B7D4DFC09B02C04B
:0800D400C09801C0C09AF8CFEA
:00000001FF
