:1000000012C019C018C017C016C015C014C013C044
:1000100012C011C010C00FC00EC00DC00CC00BC06C
:100020000AC009C008C011241FBECFE5D4E0DEBF5E
:10003000CDBF42D06DC0E4CF98B3987F98BB98B342
:100040009D7F98BB82BB88B3846088BB8FEC97E0B0
:100050000197F1F700C0000088B3887F88BB8FEC60
:1000600097E00197F1F700C00000089598B3987FDA
:1000700098BBEFECF7E03197F1F700C0000098B3C0
:10008000926098BBEFECF7E03197F1F700C0000009
:1000900082BB88B3846088BB8FEC97E00197F1F74F
:1000A00000C0000088B3887F88BBEFECF7E0319791
:1000B000F1F700C0000008958FEF81BB12BA87BB33
:1000C00018BA2FEF89E698E1215080409040E1F77F
:1000D00000C000008CE3B0DF81E0AEDF82E0ACDF87
:1000E0008FE0AADF81E4C2DF8DE4C0DF81E4BEDF00
:1000F0008EE4BCDF98B381E0892788BB2FEF89E6C7
:1001000098E1215080409040E1F700C00000F2CF1C
:04011000F894FFCF91
:00000001FF
