:1000000012C024C023C022C021C020C01FC01EC0F7
:100010001DC01CC01BC01AC019C018C017C016C014
:1000200015C014C013C011241FBECFE5D4E0DEBF3D
:10003000CDBF10E0A0E6B0E0E0E5F1E002C0059041
:100040000D92A038B107D9F757D080C0D9CF98B357
:10005000987F98BB98B39D7F98BB82BB88B3846020
:1000600088BB8FEC97E00197F1F700C0000088B3E0
:10007000887F88BB8FEC97E00197F1F700C0000004
:10008000089598B3987F98BBEFECF7E03197F1F7BC
:1000900000C0000098B3926098BBEFECF7E0319796
:1000A000F1F700C0000082BB88B3846088BB8FEC8E
:1000B00097E00197F1F700C0000088B3887F88BB04
:1000C000EFECF7E03197F1F700C0000008950F93CF
:1000D0001F93CF93DF938C01D62FC0E006C0F801A9
:1000E000EC0FF11D8081CDDFCF5FCD17C0F3DF9125
:1000F000CF911F910F9108958FEF81BB12BA87BBEB
:1001000018BA2FEF89E698E1215080409040E1F73E
:1001100000C000008CE39BDF81E099DF82E097DF85
:100120008CE095DF60E280E690E0D1DF98B381E07B
:10013000892788BB2FEF87E893E1215080409040CA
:10014000E1F700C0000088E182DFF0CFF894FFCF34
:1001500068656C6C6F20776F726C642C206C6364C4
:10016000203C3C3C3C203E3E3E3E3E202E2E2E2E51
:00000001FF
