S00C0000546F6E652E7372656382
S11300000C9434000C9449000C9449000C9449005D
S11300100C9449000C9449000C9449000C94490038
S11300200C9449000C9449000C9449000C94690008
S11300300C9449000C9449000C9449000C94490018
S11300400C9449000C9449000C9449000C94490008
S11300500C9449000C9449000C9449000C944900F8
S11300600C9449000C94490011241FBECFEFD8E032
S1130070DEBFCDBF11E0A0E0B1E0E6E5F2E002C0F2
S113008005900D92A230B107D9F70E947F000C941D
S113009029010C940000219AE0E8F0E0808180645A
S11300A08083E1E8F0E0808188608083109285009D
S11300B01092840080910001909101019093890035
S11300C080938800EFE6F0E08081826080837894FA
S11300D008951F920F920FB60F9211248F939F933E
S11300E08091000190910101909389008093880090
S11300F09F918F910F900FBE0F901F9018950E94A3
S11301004B008DED9DE19093010180930001E1E8A6
S1130110F0E08081826080832FEF83ED90E32150B3
S113012080409040E1F700C000000F2EFEE17F2EDA
S1130130F02DC4E6D0E00F2EF0E48F2EF2E49F2ED3
S1130140FFE0AF2EB12CF02D0F2EF1E8EF2EF12CA5
S1130150F02D0F2EF4E8CF2ED12CF02D072D072CE7
S1130160000C110BC00FD11F9E0140E050E0C501EF
S1130170B4010E94E8003093010120930001EFEFE5
S1130180F6E721E0E150F0402040E1F700C0000034
S1130190CE01855691098B36974020F37194C70D93
S11301A0D11D77FCDA95F70180818D7F8083F6017C
S11301B011821082FFEF27E883E1F1502040804054
S11301C0E1F700C00000F701808182608083C6CF20
S11301D0052E97FB1EF400940E94FF0057FD07D0E4
S11301E00E94070107FC03D04EF40C94FF005095C5
S11301F04095309521953F4F4F4F5F4F089590950F
S11302008095709561957F4F8F4F9F4F0895A1E220
S11302101A2EAA1BBB1BFD010DC0AA1FBB1FEE1F7C
S1130220FF1FA217B307E407F50720F0A21BB30BC7
S1130230E40BF50B661F771F881F991F1A9469F743
S113024060957095809590959B01AC01BD01CF019F
S10902500895F894FFCFAD
S1050256EE0EA6
S9030000FC
