S00C0000546F6E652E7372656382
S11300000C9434000C9451000C9451000C94510045
S11300100C9451000C9451000C9451000C94510018
S11300200C9451000C9451000C9451000C947100E8
S11300300C9451000C9451000C9451000C945100F8
S11300400C9451000C9451000C9451000C945100E8
S11300500C9451000C9451000C9451000C945100D8
S11300600C9451000C94510011241FBECFEFD8E022
S1130070DEBFCDBF11E0A0E0B1E0EAE8F3E002C0EA
S113008005900D92A630B107D9F721E0A6E0B1E0C2
S113009001C01D92A730B207E1F70E94B4000C948E
S11300A0C3010C940000219AE0E8F0E080818064B0
S11300B08083E1E8F0E0808188608083109285008D
S11300C0109284008091040190910501909389001D
S11300D080938800EFE6F0E08081826080837894EA
S11300E008951F920F920FB60F9211242F933F93EE
S11300F04F935F936F937F938F939F93AF93BF932C
S1130100EF93FF9380910601813089F40E9450019E
S113011068EE73E00E94DC008C599F4F9093890035
S11301208093880010928500109284000CC0809106
S113013004019091050190938900809388001092A6
S1130140850010928400FF91EF91BF91AF919F9130
S11301508F917F916F915F914F913F912F910F906C
S11301600FBE0F901F9018950E9453008DE49DE0E0
S1130170909305018093040181E080930601E1E8F6
S1130180F0E0A4E8B0E080818D7F808311961C921A
S11301901E922FEF84E694E0215080409040E1F7D6
S11301A000C000008081826080838FE39CE9019716
S11301B0F1F700C00000E7CF97FB072E16F4009478
S11301C007D077FD09D00E94F00007FC05D03EF46B
S11301D0909581959F4F0895709561957F4F0895EF
S11301E0AA1BBB1B51E107C0AA1FBB1FA617B70759
S11301F010F0A61BB70B881F991F5A95A9F7809575
S11302009095BC01CD0108958F929F92AF92BF92B9
S1130210CF92DF92EF92FF92CF93DF93EC0168814C
S113022079818A819B81611571058105910521F48C
S113023064E279ED8BE597E02DE133EF41E050E0A6
S11302400E94600149015A019B01AC01A7EAB1E493
S11302500E947F016B017C01ACEEB4EFA501940117
S11302600E948D01DC01CB018C0D9D1DAE1DBF1DB7
S1130270B7FF03C00197A109B04888839983AA8373
S1130280BB839F77DF91CF91FF90EF90DF90CF906A
S1130290BF90AF909F908F9008950E94040108959D
S11302A080E091E00E9404010895A0E0B0E0809312
S11302B0000190930101A0930201B09303010895FA
S11302C0052E97FB1EF400940E94770157FD07D07A
S11302D00E94920107FC03D04EF40C9477015095D0
S11302E04095309521953F4F4F4F5F4F089590951E
S11302F08095709561957F4F8F4F9F4F08950E9411
S1130300B401A59F900DB49F900DA49F800D911DE5
S113031011240895B7FF0C947F010E947F01821B72
S1130320930B0895A1E21A2EAA1BBB1BFD010DC05D
S1130330AA1FBB1FEE1FFF1FA217B307E407F50791
S113034020F0A21BB30BE40BF50B661F771F881F6D
S1130350991F1A9469F760957095809590959B0103
S1130360AC01BD01CF010895A29FB001B39FC001AC
S1130370A39F700D811D1124911DB29F700D811DCD
S10D03801124911D0895F894FFCF95
S109038A01000000EE0E6C
S9030000FC
