S00C0000546F6E652E7372656382
S11300000C9434000C9451000C9451000C94510045
S11300100C9451000C9451000C9451000C94510018
S11300200C9451000C9451000C9451000C947100E8
S11300300C9451000C9451000C9451000C945100F8
S11300400C9451000C9451000C9451000C945100E8
S11300500C9451000C9451000C9451000C945100D8
S11300600C9451000C94510011241FBECFEFD8E022
S1130070DEBFCDBF11E0A0E0B1E0EEE2F4E002C0EB
S113008005900D92A630B107D9F721E0A6E0B1E0C2
S113009001C01D92A730B207E1F70E94B4000C948E
S11300A015020C940000219AE0E8F0E0808180645D
S11300B08083E1E8F0E0808188608083109285008D
S11300C0109284008091040190910501909389001D
S11300D080938800EFE6F0E08081826080837894EA
S11300E008951F920F920FB60F9211242F933F93EE
S11300F04F935F936F937F938F939F93AF93BF932C
S1130100EF93FF9380910601813089F40E94E3010B
S113011068EE73E00E942E018C599F4F90938900E2
S11301208093880010928500109284000CC0809106
S113013004019091050190938900809388001092A6
S1130140850010928400FF91EF91BF91AF919F9130
S11301508F917F916F915F914F913F912F910F906C
S11301600FBE0F901F9018950E94530082EC90E1EF
S11301709093050180930401109206010F2EFDE473
S1130180AF2EFDE0BF2EF02DC1E8D0E004E810E072
S11301900F2EF0E44F2EF2E45F2EFFE06F2E712C51
S11301A0F02DB0920501A092040122E330E0888191
S11301B08D7F8883F80111821082FFEF41EE84E085
S11301C0F15040408040E1F700C000008881826027
S11301D08883EFE3FCE93197F1F700C00000215078
S11301E0310929F788818D7F8883F8011182108273
S11301F00F2EF4E6CF2ED12CE12CF12CF02DFFEFB5
S113020021EE44E0F15020404040E1F700C00000FE
S1130210C301B201A70196010E9442013093050176
S1130220209304018881826088838FE39CE901978D
S1130230F1F700C0000088818D7F8883F801118266
S11302401082F4E1CF0ED11CE11CF11C20EDC2168A
S113025027E0D206E104F10491F6A3CF97FB072E21
S113026016F4009407D077FD09D00E94610107FCC1
S113027005D03EF4909581959F4F089570956195B2
S11302807F4F0895052E97FB1EF400940E94590198
S113029057FD07D00E94750107FC03D04EF40C945F
S11302A0590150954095309521953F4F4F4F5F4FE1
S11302B0089590958095709561957F4F8F4F9F4FCE
S11302C00895AA1BBB1B51E107C0AA1FBB1FA61799
S11302D0B70710F0A61BB70B881F991F5A95A9F7EB
S11302E080959095BC01CD010895A1E21A2EAA1B18
S11302F0BB1BFD010DC0AA1FBB1FEE1FFF1FA217D2
S1130300B307E407F50720F0A21BB30BE40BF50BCE
S1130310661F771F881F991F1A9469F76095709557
S1130320809590959B01AC01BD01CF0108958F92FA
S11303309F92AF92BF92CF92DF92EF92FF92CF93B0
S1130340DF93EC01688179818A819B816115710554
S11303508105910521F464E279ED8BE597E02DE1C7
S113036033EF41E050E00E94420149015A019B01F0
S1130370AC01A7EAB1E40E94F3016B017C01ACEE8D
S1130380B4EFA50194010E940102DC01CB018C0DA4
S11303909D1DAE1DBF1DB7FF03C00197A109B04845
S11303A088839983AA83BB839F77DF91CF91FF9042
S11303B0EF90DF90CF90BF90AF909F908F90089573
S11303C00E949701089580E091E00E9497010895AA
S11303D0A0E0B0E08093000190930101A09302019A
S11303E0B093030108950E940602A59F900DB49F47
S11303F0900DA49F800D911D11240895B7FF0C94B6
S1130400F3010E94F301821B930B0895A29FB00194
S1130410B39FC001A39F700D811D1124911DB29F34
S1110420700D811D1124911D0895F894FFCFD5
S109042E01000000EE0EC7
S9030000FC
