:100000000C9434000C943E000C943E000C943E0082
:100010000C943E000C943E000C943E000C943E0068
:100020000C943E000C943E000C943E000C943E0058
:100030000C943E000C943E000C943E000C943E0048
:100040000C943E000C943E000C943E000C943E0038
:100050000C943E000C943E000C943E000C943E0028
:100060000C943E000C943E0011241FBECFEFD8E04C
:10007000DEBFCDBF0E9424010C943C010C94000013
:10008000459A4498459828E030E090E82D98482F0C
:10009000492311F02B9A01C02B982D9A9695215047
:1000A0003109A1F7459A0895CF93C82F8FEF84B9EE
:1000B00087B98FE39CE90197F1F700C00000439AEC
:1000C0009FEF21EE84E0915020408040E1F700C096
:1000D000000043989FEF21EE84E091502040804043
:1000E000E1F700C00000439A9FEF21EE84E09150B9
:1000F00020408040E1F700C000008EEA0E944000EE
:1001000085ED0E94400080E80E94400088EA0E943D
:1001100040008FE30E94400083ED0E94400080E099
:100120000E94400080E40E9440008DE80E94400050
:10013000C13011F580E10E94400080E20E94400041
:1001400080E00E94400081EA0E94400088EC0E940A
:1001500040008AED0E94400082E10E94400081E858
:100160000E9440008FE90E94400089ED0E944000FB
:1001700082E20E94400021C084E10E94400080E2AF
:100180000E94400080E00E94400081EA0E944000FE
:1001900088EC0E9440008AED0E94400082E10E94AB
:1001A000400081E80E9440008FEC0E94400089EDF1
:1001B0000E94400081EF0E9440008BED0E944000B1
:1001C00080E40E94400084EA0E94400086EA0E9487
:1001D00040008EE20E9440008FEA0E944000CF91D2
:1001E0000895CF93DF93D82FC62F81E20E9440005D
:1001F0008D2F0E9440008FE70E94400082E20E9403
:1002000040008C2F0E94400087E00E944000459AE9
:10021000449A4598DF91CF910895459A089560E0FA
:1002200080E00E94F10020E034E008C02D982B9877
:100230002D9A0197D9F72150310919F088E090E003
:10024000F5CF0E940D01089582E00E9454000E94A3
:100250000F0160E080E00E94F1009FEF07C02D9841
:100260002B9A2D9A8695D9F7915019F02D9880E800
:0C027000F7CF0E940D01FFCFF894FFCFE4
:00000001FF
