S00C00004F4C45442E73726563F4
S11300000C9434000C943E000C943E000C943E007E
S11300100C943E000C943E000C943E000C943E0064
S11300200C943E000C943E000C943E000C943E0054
S11300300C943E000C943E000C943E000C943E0044
S11300400C943E000C943E000C943E000C943E0034
S11300500C943E000C943E000C943E000C943E0024
S11300600C943E000C943E0011241FBECFEFD8E048
S1130070DEBFCDBF0E941C010C942B010C94000028
S11300802D9A2C982D9828E030E090E82D98482F50
S1130090492311F02B9A01C02B982D9A9695215043
S11300A03109A1F72D9A0895CF93C82F8FEF84B902
S11300B087B98FE39CE90197F1F700C000002B9A00
S11300C09FEF21EE84E0915020408040E1F700C092
S11300D000002B989FEF21EE84E091502040804057
S11300E0E1F700C000002B9A9FEF21EE84E09150CD
S11300F020408040E1F700C000008EEA0E944000EA
S113010085ED0E94400080E80E94400088EA0E9439
S113011040008FE30E94400083ED0E94400080E095
S11301200E94400080E40E9440008DE80E9440004C
S113013084E10E94400080E20E94400080E00E942E
S1130140400081EA0E94400088EC0E9440008AED51
S11301500E94400082E10E94400081E80E94400029
S1130160C13051F48FE90E94400089ED0E944000A3
S113017082E20E94400009C08FEC0E94400089ED99
S11301800E94400081EF0E9440008BED0E944000DD
S113019080E40E94400084EA0E94400086EA0E94B3
S11301A040008EE20E9440008FEA0E944000CF91FE
S11301B00895CF93DF93D82FC62F81E20E94400089
S11301C08D2F0E9440008FE70E94400082E20E942F
S11301D040008C2F0E94400087E00E9440002D9A2E
S11301E02C9A2D98DF91CF9108952D9A089560E06F
S11301F080E00E94D90020E034E008C02D982B98BC
S11302002D9A0197D9F72150310919F088E090E02F
S1130210F5CF0E94F500089528E030E090E82D988D
S1130220482F492311F02B9A01C02B982D9A9695AB
S113023021503109A1F7089582E00E9454000E94E0
S1130240F70061E080E00E94D9008FEF0E940C016A
S10D02500E94F500FFCFF894FFCFE1
S9030000FC
